:100000000C9462000C948A000C948A000C948A0070
:100010000C948A000C948A000C948A000C948A0038
:100020000C948A000C948A000C948A000C948A0028
:100030000C948A000C948A000C948A000C948A0018
:100040000C94A7040C948A000C9417050C94F104EA
:100050000C948A000C948A000C948A000C948A00F8
:100060000C948A000C948A000000000024002700F1
:100070002A0000000000250028002B0000000000DE
:1000800023002600290004040404040404040202DA
:100090000202020203030303030301020408102007
:1000A0004080010204081020010204081020000012
:1000B0000008000201000003040700000000000027
:1000C0000000490511241FBECFEFD8E0DEBFCDBF31
:1000D00011E0A0E0B1E0ECE1FFE002C005900D927C
:1000E000AA3AB107D9F722E0AAEAB1E001C01D920D
:1000F000AA35B207E1F710E0C2E6D0E004C02197CC
:10010000FE010E948107C136D107C9F70E947C0514
:100110000C948C070C940000833081F028F481301B
:1001200099F08230A1F008958730A9F08830B9F0B5
:100130008430D1F4809180008F7D03C08091800055
:100140008F7780938000089584B58F7702C084B53F
:100150008F7D84BD08958091B0008F7703C080911A
:10016000B0008F7D8093B0000895CF93DF93282F48
:1001700030E0F901E255FF4F8491F901E656FF4F57
:10018000D491F901EA57FF4FC491CC2391F081112A
:100190000E948C00EC2FF0E0EE0FFF1FE458FF4FA1
:1001A000A591B491EC91ED2381E090E021F480E001
:1001B00002C080E090E0DF91CF9108951F93CF932C
:1001C000DF93282F30E0F901E255FF4F8491F901C8
:1001D000E656FF4FD491F901EA57FF4FC491CC2363
:1001E000C1F0162F81110E948C00EC2FF0E0EE0F71
:1001F000FF1FEE58FF4FA591B4919FB7F8941111CE
:1002000004C08C91D095D82302C0EC91DE2BDC93F6
:100210009FBFDF91CF911F910895CF93DF9390E01F
:10022000FC01E656FF4F2491FC01EA57FF4F8491F1
:10023000882361F190E0880F991FFC01E859FF4F76
:10024000C591D491FC01EE58FF4FA591B491611175
:1002500009C09FB7F8948881209582238883EC9108
:100260002E230BC0623061F49FB7F8948881322F3F
:10027000309583238883EC912E2B2C939FBF06C04F
:100280008FB7F894E8812E2B28838FBFDF91CF9111
:10029000089560E0809151020E940D0161E080911B
:1002A00050020E94DE00809151020E94B500019729
:1002B000D1F360E0809150020C94DE00CF93DF9385
:1002C000C0E5D2E061E089810E940D0160E0898192
:1002D0000E94DE0061E088810E94DE0061E0898189
:1002E0000E94DE0060E08981DF91CF910C940D01C6
:1002F0003FB7F8948091AF019091B001A091B10106
:10030000B091B20126B5A89B05C02F3F19F0019608
:10031000A11DB11D3FBFBA2FA92F982F8827820F8B
:10032000911DA11DB11DBC01CD0142E0660F771FDB
:10033000881F991F4A95D1F70895CF92DF92EF92C7
:10034000FF920F931F93CF93DF936C017A018B0180
:10035000C0E0D0E0CE15DF0581F0D8016D918D01B0
:10036000D601ED91FC910190F081E02DC601099537
:10037000892B11F02196EECF7E01C701DF91CF913D
:100380001F910F91FF90EF90DF90CF900895089507
:1003900080E090E00895FC01538D448D252F30E0DE
:1003A000842F90E0821B930B541710F0CF96089582
:1003B00001970895FC01918D828D981761F0828DCF
:1003C000DF01A80FB11D5D968C91928D9F5F9F7389
:1003D000928F90E008958FEF9FEF0895FC01918D2B
:1003E000828D981731F0828DE80FF11D858D90E098
:1003F00008958FEF9FEF0895FC01918D228D892F35
:1004000090E0805C9F4F821B91098F73992708951C
:1004100083EB91E00E94FC0121E0892B09F420E0AC
:10042000822F0895FC01848DDF01A80FB11DA35A0E
:10043000BF4F2C91848D90E001968F739927848F04
:10044000A689B7892C93A089B1898C918370806427
:100450008C93938D848D981306C00288F389E02DC8
:1004600080818F7D80830895EF92FF920F931F9379
:10047000CF93DF93EC0181E0888F9B8D8C8D981357
:1004800005C0E889F989808185FD26C0F62E0B8D8F
:1004900010E00F5F1F4F0F731127E02E8C8DE812B5
:1004A0000CC00FB607FCFACFE889F989808185FF77
:1004B000F5CFCE010E941202F1CF8B8DFE01E80F25
:1004C000F11DE35AFF4FF0829FB7F8940B8FEA8932
:1004D000FB89808180620AC09FB7F894EE89FF890A
:1004E0006083E889F98980818370806480839FBFFD
:1004F00081E090E0DF91CF911F910F91FF90EF90FD
:100500000895CF93DF93EC01888D8823C9F0EA89A1
:10051000FB89808185FD05C0A889B9898C9186FDFC
:100520000FC00FB607FCF5CF808185FFF2CFA889F9
:10053000B9898C9185FFEDCFCE010E941202E7CFE1
:10054000DF91CF91089580E090E0892B29F00E94FF
:10055000080281110C9400000895EF92FF920F930E
:100560001F93CF93DF93E82EF62EC7E0D0E0042F41
:1005700010E0B8010C2E02C0759567950A94E2F759
:1005800061708E2D0E94DE0061E08F2D0E94DE00E2
:1005900060E08F2D0E94DE00219758F7DF91CF9108
:1005A0001F910F91FF90EF9008951F93CF93DF93CA
:1005B000182FC0E5D2E061E089810E940D0161E061
:1005C00089810E94DE0061E088810E94DE0060E097
:1005D00089810E94DE0060E088810E94DE00412F58
:1005E00068818981DF91CF911F910C94AD021F9397
:1005F000CF93DF93182FC0E5D2E061E089810E949C
:100600000D01412F68818981DF91CF911F910C9459
:10061000AD02CF93DF9390915902992349F194EE63
:100620009093BC009091BC0097FFFCCF90ED90930D
:10063000BB0094EC9093BC009091BC0097FFFCCF62
:100640008093BB0084EC8093BC008091BC0087FF4A
:10065000FCCF6093BB0084EC8093BC008091BC0015
:1006600087FFFCCF84E98093BC00DF91CF91089590
:10067000C62FD82F80ED0E94D5020E9449018D2FF0
:100680000E94F7020E9449018C2F0E94F7020E94EB
:100690004901DF91CF910C945E01BF92CF92DF921E
:1006A000EF92FF920F931F93CF93DF93CDB7DEB7F7
:1006B00028970FB6F894DEBF0FBECDBF80915902C8
:1006C000882309F447C084EE8093BC008091BC006D
:1006D00087FFFCCF80ED8093BB0084EC8093BC004F
:1006E0008091BC0087FFFCCF1092BB0084EC80930C
:1006F000BC008091BC0087FFFCCF84EE8093BC00DF
:100700008091BC0087FFFCCF81ED8093BB0084EC1F
:100710008093BC008091BC0087FFFCCFE2E5F2E053
:1007200089E592E034EC3093BC002091BC0027FFB7
:10073000FCCF2091BB0021938E179F07A1F784E87F
:100740008093BC008091BC0087FFFCCF84E980933C
:10075000BC006CC080ED0E94D5020E94490180E07F
:100760000E94F7020E94490181ED0E94D5020E9479
:10077000490192E5C92E92E0D92E00E010E060E038
:10078000809151020E940D0187E0E82EF12CB12CDE
:1007900061E0809150020E94DE00809151020E942F
:1007A000B50099270E2C01C0880F0A94EAF7B82AE1
:1007B00060E0809150020E94DE0071E0E71AF108CB
:1007C00038F7F601B1926F0161E080915102063075
:1007D000110549F00E940D0160E0809150020E94D5
:1007E000DE0060E008C00E940D0160E080915002D0
:1007F0000E94DE0061E0809151020E94DE0061E013
:10080000809150020E94DE0060E0809150020E94C0
:10081000DE0060E0809151020E940D010F5F1F4FCA
:100820000730110509F0ABCF0E945E0180915202A2
:10083000482F4695469546954E70942F990F990FDF
:10084000490F8F70480F80915302382F3695369597
:1008500036953E70932F990F990F390F8F70380F7F
:1008600080915402282F2F7087FF08C085FB99279D
:1008700090F9FCE09F9F200D112409C0807386959C
:1008800086958695982F990F990F890F280FE091DB
:100890005502609156027091570280915802562F6E
:1008A0005695569556955E70952F990F990F590F3D
:1008B0006F70560F672F6695669566956E70962FCA
:1008C000990F990F690F7F70670F982F92959F70FE
:1008D0008F707AE0979F800D112490E08053984F9D
:1008E0009F838E83782F8F819E2F28960FB6F89442
:1008F000DEBF0FBECDBFDF91CF911F910F91FF9053
:10090000EF90DF90CF90BF900895009769F0FC01C1
:1009100001900020E9F73197AF01481B590BBC014A
:1009200083EB91E00C949D0180E090E00895CF93DB
:10093000DF930E948504EC0184E391E00E9485042A
:100940008C0F9D1FDF91CF9108950E9487071F9202
:100950000F920FB60F9211242F933F938F939F9373
:10096000AF93BF938091AB019091AC01A091AD0189
:10097000B091AE013091AA0123E0230F2D3720F46E
:100980000196A11DB11D05C026E8230F0296A11DE9
:10099000B11D2093AA018093AB019093AC01A09369
:1009A000AD01B093AE018091AF019091B001A091E3
:1009B000B101B091B2010196A11DB11D8093AF01AB
:1009C0009093B001A093B101B093B201BF91AF91E8
:1009D0009F918F913F912F910F900FBE0F901F907D
:1009E00018951F920F920FB60F9211242F933F93D9
:1009F0004F935F936F937F938F939F93AF93BF9327
:100A0000EF93FF9383EB91E00E941202FF91EF912D
:100A1000BF91AF919F918F917F916F915F914F9116
:100A20003F912F910F900FBE0F901F9018951F921E
:100A30000F920FB60F9211242F938F939F93EF93E2
:100A4000FF93E091C301F091C4018081E091C9015D
:100A5000F091CA0182FD12C090818091CC018F5F1C
:100A60008F732091CD01821751F0E091CC01F0E01D
:100A7000ED54FE4F958F8093CC0101C08081FF9192
:100A8000EF919F918F912F910F900FBE0F901F901C
:100A90001895E3EBF1E01382128288EE93E0A0E078
:100AA000B0E084839583A683B78386E291E0918347
:100AB000808385EC90E09587848784EC90E097872D
:100AC000868780EC90E0918B808B81EC90E0938B1B
:100AD000828B82EC90E0958B848B86EC90E0978BF8
:100AE000868B118E128E138E148EE0E5F2E082E179
:100AF000818383E180830895CF93DF93CDB7DEB701
:100B000066970FB6F894DEBF0FBECDBF789484B55C
:100B1000826084BD84B5816084BD85B5826085BDF9
:100B200085B5816085BD80916E00816080936E0087
:100B30001092810080918100826080938100809179
:100B4000810081608093810080918000816080932A
:100B500080008091B10084608093B1008091B000EA
:100B600081608093B00080917A00846080937A00E5
:100B700080917A00826080937A0080917A0081600F
:100B800080937A0080917A00806880937A00109236
:100B9000C100E091C301F091C40182E08083E09143
:100BA000BF01F091C0011082E091C101F091C2013A
:100BB00080E180831092CB01E091C701F091C801E0
:100BC00086E08083E091C501F091C601808180615B
:100BD0008083E091C501F091C601808188608083A7
:100BE000E091C501F091C601808180688083E09129
:100BF000C501F091C60180818F7D808387E391E0FC
:100C00000E94850480915102823101F58091500249
:100C10008331E1F481E08093590261E082E10E9436
:100C2000DE0061E083E10E94DE008091B9008E7FEA
:100C30008093B9008091B9008D7F8093B9008CE0DA
:100C40008093B80085E08093BC0007C010925902E1
:100C500061E0809150020E940D0163E083E00E94F8
:100C6000090367E082E00E94090360E381E00E94DB
:100C7000090360E080E00E9409031AE000E39EE2BD
:100C8000392E24E6E22EF12C3AE0C32ED12C4AE391
:100C9000242E82E491E00E9497048EE0E4E1F1E0EA
:100CA000DE01119601900D928A95E1F70E944D03A5
:100CB000E92F2F87388B498B5A8B6B8B7C8B8D8BD5
:100CC0009E8BCE0101968E0F911D8E0F911DFC0102
:100CD0003297808191810E94850481E691E00E9493
:100CE000850482E591E00E9497040E944D036D8384
:100CF0007E838F835A3018F40093000107C0852F3C
:100D0000612F0E944D07805D80930001852F612F28
:100D10000E944D07905D90930101309202012D8158
:100D20002A3018F40093030107C0822F612F0E941C
:100D30004D07805D80930301822F612F0E944D0734
:100D4000905D90930401309205012E813F81C9018D
:100D500068EE73E00E945907605D60930601B70179
:100D60000E945907605D60930701C901B7010E94A5
:100D70005907B6010E945907605D60930801C901D7
:100D8000B6010E945907805D8093090110920A0103
:100D900080E091E00E9485048EE591E00E94850448
:100DA00083E691E00E9497040E944D0329833A83D1
:100DB0004B835C836D837E838F8398872A3018F4FE
:100DC00000930B0107C0822F612F0E944D07805DA9
:100DD00080930B01822F612F0E944D07905D9093AD
:100DE0000C0120920D012A812A3018F400930E0183
:100DF00007C0822F612F0E944D07805D80930E01F6
:100E0000822F612F0E944D07905D90930F012092D9
:100E100010012B812A3018F40093110107C0822F92
:100E2000612F0E944D07805D80931101822F612FF9
:100E30000E944D07905D90931201109213018BE078
:100E400091E00E9497040E9478012B013C0188EEFA
:100E5000882E83E0982EA12CB12C0E947801DC0111
:100E6000CB0184199509A609B709883E9340A105CD
:100E7000B10598F321E0821A9108A108B10888EE23
:100E8000480E83E0581E611C711C81149104A1045A
:100E9000B10419F70E94A302FCCE991B79E004C0AB
:100EA000991F961708F0961B881F7A95C9F78095A9
:100EB000089597FB072E16F4009407D077FD09D00C
:100EC0000E946D0707FC05D03EF4909581959F4FD9
:100ED0000895709561957F4F0895AA1BBB1B51E142
:100EE00007C0AA1FBB1FA617B70710F0A61BB70B9A
:100EF000881F991F5A95A9F780959095BC01CD013F
:100F00000895EE0FFF1F0590F491E02D099481E004
:0C0F100090E0F8940C948C07F894FFCF4C
:100F1C0078787878787878787878007878787878BD
:100F2C0078787800700177017F018901920199012D
:100F3C00A2010000000034029D01CB018102FC01E2
:100F4C00DA01EE010D0A0053657474696E67207541
:100F5C00700053656E64696E67207765656B6461BC
:100F6C00790053656E64696E672064617900202D89
:100F7C002D200053656E64696E672074696D650081
:100F8C004D6F6E64617900547565736461790057B7
:100F9C0065646E657364617900546875727364611D
:100FAC007900467269646179005361747572646189
:0A0FBC00790053756E64617900003E
:00000001FF
